{
  "transactions": [
    {
      "hash": "0x5be9429bfc21c54fa3395c4eb773195e7ac51e8cb0c8a633bce0a0c6fa6b5488",
      "transactionType": "CALL",
      "contractName": null,
      "contractAddress": "0x567a92ada6a5d7d31b9e7aa410d868fa91cd7b7c",
      "function": "mint(address,uint256)",
      "arguments": [
        "0x58011d39F938A32d5D6CEFDdb342eDB877ce0B7E",
        "10000000000000000000000"
      ],
      "transaction": {
        "from": "0x58011d39f938a32d5d6cefddb342edb877ce0b7e",
        "to": "0x567a92ada6a5d7d31b9e7aa410d868fa91cd7b7c",
        "gas": "0x1244c",
        "value": "0x0",
        "input": "0x40c10f1900000000000000000000000058011d39f938a32d5d6cefddb342edb877ce0b7e00000000000000000000000000000000000000000000021e19e0c9bab2400000",
        "nonce": "0x33",
        "chainId": "0x92"
      },
      "additionalContracts": [],
      "isFixedGasLimit": false
    }
  ],
  "receipts": [
    {
      "status": "0x1",
      "cumulativeGasUsed": "0xdbb0",
      "logs": [
        {
          "address": "0x567a92ada6a5d7d31b9e7aa410d868fa91cd7b7c",
          "topics": [
            "0xddf252ad1be2c89b69c2b068fc378daa952ba7f163c4a11628f55a4df523b3ef",
            "0x0000000000000000000000000000000000000000000000000000000000000000",
            "0x00000000000000000000000058011d39f938a32d5d6cefddb342edb877ce0b7e"
          ],
          "data": "0x00000000000000000000000000000000000000000000021e19e0c9bab2400000",
          "blockHash": "0xca0d29ecfe2bb03c4360944e3d109b273aac354f8bc366ecbb5ab97aa0ed5011",
          "blockNumber": "0x2233e8c",
          "transactionHash": "0x5be9429bfc21c54fa3395c4eb773195e7ac51e8cb0c8a633bce0a0c6fa6b5488",
          "transactionIndex": "0x0",
          "logIndex": "0x0",
          "removed": false
        }
      ],
      "logsBloom": "0x00000000000000000000000000000000000000000000000000000000000000000000000000000000000000000000000000000000000000000000000000000000000000000000002000000008000000000000000000000000200000000000000000000000020000000000000000000800000000000000000000000010000000000000000000000000000000000000000000000000000000000000000000000000000000000000000000100000000000000400000000000000000000000000000000000002000000000000000800000000000000000000400000000000000020000000000000000000000000000000000000000000000000000000000000000000",
      "type": "0x2",
      "transactionHash": "0x5be9429bfc21c54fa3395c4eb773195e7ac51e8cb0c8a633bce0a0c6fa6b5488",
      "transactionIndex": "0x0",
      "blockHash": "0xca0d29ecfe2bb03c4360944e3d109b273aac354f8bc366ecbb5ab97aa0ed5011",
      "blockNumber": "0x2233e8c",
      "gasUsed": "0xdbb0",
      "effectiveGasPrice": "0xba43b7401",
      "from": "0x58011d39f938a32d5d6cefddb342edb877ce0b7e",
      "to": "0x567a92ada6a5d7d31b9e7aa410d868fa91cd7b7c",
      "contractAddress": null
    }
  ],
  "libraries": [],
  "pending": [],
  "returns": {},
  "timestamp": 1750864715,
  "chain": 146,
  "commit": "3f178f61"
}