{
  "transactions": [
    {
      "hash": "0xdc0bbe799683947a7c8abbb35094c7b15138d7299881bab5cc48924c09b847f0",
      "transactionType": "CALL",
      "contractName": null,
      "contractAddress": "0xa1279bf81e3afe92f9342d97202b72124d740f37",
      "function": "emergencyMint(address,uint256)",
      "arguments": [
        "0x58011d39F938A32d5D6CEFDdb342eDB877ce0B7E",
        "1000000000000000000000"
      ],
      "transaction": {
        "from": "0x58011d39f938a32d5d6cefddb342edb877ce0b7e",
        "to": "0xa1279bf81e3afe92f9342d97202b72124d740f37",
        "gas": "0xf41e",
        "value": "0x0",
        "input": "0x43785dc900000000000000000000000058011d39f938a32d5d6cefddb342edb877ce0b7e00000000000000000000000000000000000000000000003635c9adc5dea00000",
        "nonce": "0x1e",
        "chainId": "0x92"
      },
      "additionalContracts": [],
      "isFixedGasLimit": false
    }
  ],
  "receipts": [
    {
      "status": "0x1",
      "cumulativeGasUsed": "0x29a89",
      "logs": [
        {
          "address": "0x2e8d08c00bc2632fb52afaaf3da01e7a5f0a637f",
          "topics": [
            "0xddf252ad1be2c89b69c2b068fc378daa952ba7f163c4a11628f55a4df523b3ef",
            "0x0000000000000000000000000000000000000000000000000000000000000000",
            "0x00000000000000000000000058011d39f938a32d5d6cefddb342edb877ce0b7e"
          ],
          "data": "0x00000000000000000000000000000000000000000000003635c9adc5dea00000",
          "blockHash": "0x213992ac4e65250346c7d8578b20b93a57ac42084c7dfd9b26dbf40f5c840553",
          "blockNumber": "0x222ece5",
          "transactionHash": "0xdc0bbe799683947a7c8abbb35094c7b15138d7299881bab5cc48924c09b847f0",
          "transactionIndex": "0x1",
          "logIndex": "0x5",
          "removed": false
        }
      ],
      "logsBloom": "0x00000000000000000000000000000000000000000000000000000000000000000000000000000000000000000000000000000000000000000000000000000000000000000000002000000008000000000000000000000000000000000000000000000000020000000000000000000800000000000000000000000010000000000000000000000000000000000000000000000000000000000000000000000000000000000000000000100000000000000400000000000000000000000000000000000002000000000000000000000000000000100000000000000000000021000000000000000000000800000000000000000000000000000000000000000000",
      "type": "0x2",
      "transactionHash": "0xdc0bbe799683947a7c8abbb35094c7b15138d7299881bab5cc48924c09b847f0",
      "transactionIndex": "0x1",
      "blockHash": "0x213992ac4e65250346c7d8578b20b93a57ac42084c7dfd9b26dbf40f5c840553",
      "blockNumber": "0x222ece5",
      "gasUsed": "0xb77a",
      "effectiveGasPrice": "0xba43b7401",
      "from": "0x58011d39f938a32d5d6cefddb342edb877ce0b7e",
      "to": "0xa1279bf81e3afe92f9342d97202b72124d740f37",
      "contractAddress": null
    }
  ],
  "libraries": [],
  "pending": [],
  "returns": {},
  "timestamp": 1750853902,
  "chain": 146,
  "commit": "98185374"
}